{
  "contractName": "VendingMachine",
  "abi": [
    {
      "inputs": [],
      "stateMutability": "nonpayable",
      "type": "constructor"
    },
    {
      "inputs": [
        {
          "internalType": "address",
          "name": "",
          "type": "address"
        }
      ],
      "name": "donutBalances",
      "outputs": [
        {
          "internalType": "uint256",
          "name": "",
          "type": "uint256"
        }
      ],
      "stateMutability": "view",
      "type": "function",
      "constant": true
    },
    {
      "inputs": [],
      "name": "donutPrice",
      "outputs": [
        {
          "internalType": "uint256",
          "name": "",
          "type": "uint256"
        }
      ],
      "stateMutability": "view",
      "type": "function",
      "constant": true
    },
    {
      "inputs": [],
      "name": "owner",
      "outputs": [
        {
          "internalType": "address",
          "name": "",
          "type": "address"
        }
      ],
      "stateMutability": "view",
      "type": "function",
      "constant": true
    },
    {
      "inputs": [],
      "name": "getVendingMachineBalance",
      "outputs": [
        {
          "internalType": "uint256",
          "name": "",
          "type": "uint256"
        }
      ],
      "stateMutability": "view",
      "type": "function",
      "constant": true
    },
    {
      "inputs": [
        {
          "internalType": "uint256",
          "name": "amount",
          "type": "uint256"
        }
      ],
      "name": "restock",
      "outputs": [],
      "stateMutability": "nonpayable",
      "type": "function"
    },
    {
      "inputs": [
        {
          "internalType": "uint256",
          "name": "_price",
          "type": "uint256"
        }
      ],
      "name": "setDonutPrice",
      "outputs": [],
      "stateMutability": "nonpayable",
      "type": "function"
    },
    {
      "inputs": [
        {
          "internalType": "uint256",
          "name": "amount",
          "type": "uint256"
        }
      ],
      "name": "purchase",
      "outputs": [],
      "stateMutability": "payable",
      "type": "function",
      "payable": true
    }
  ],
  "bytecode": "0x608060405234801561001057600080fd5b50336000806101000a81548173ffffffffffffffffffffffffffffffffffffffff021916908373ffffffffffffffffffffffffffffffffffffffff1602179055506064600160003073ffffffffffffffffffffffffffffffffffffffff1673ffffffffffffffffffffffffffffffffffffffff16815260200190815260200160002081905550671bc16d674ec80000600281905550610a76806100b46000396000f3fe6080604052600436106100705760003560e01c8063c21a702a1161004e578063c21a702a14610106578063e31e8f151461012f578063e7644d341461015a578063efef39a11461018557610070565b8063620418da146100755780638da5cb5b1461009e5780639a020d8a146100c9575b600080fd5b34801561008157600080fd5b5061009c600480360381019061009791906105a8565b6101a1565b005b3480156100aa57600080fd5b506100b361027c565b6040516100c09190610616565b60405180910390f35b3480156100d557600080fd5b506100f060048036038101906100eb919061065d565b6102a0565b6040516100fd9190610699565b60405180910390f35b34801561011257600080fd5b5061012d600480360381019061012891906105a8565b6102b8565b005b34801561013b57600080fd5b5061014461039f565b6040516101519190610699565b60405180910390f35b34801561016657600080fd5b5061016f6103a5565b60405161017c9190610699565b60405180910390f35b61019f600480360381019061019a91906105a8565b6103ec565b005b60008054906101000a900473ffffffffffffffffffffffffffffffffffffffff1673ffffffffffffffffffffffffffffffffffffffff163373ffffffffffffffffffffffffffffffffffffffff161461022f576040517f08c379a000000000000000000000000000000000000000000000000000000000815260040161022690610737565b60405180910390fd5b60008111610272576040517f08c379a0000000000000000000000000000000000000000000000000000000008152600401610269906107a3565b60405180910390fd5b8060028190555050565b60008054906101000a900473ffffffffffffffffffffffffffffffffffffffff1681565b60016020528060005260406000206000915090505481565b60008054906101000a900473ffffffffffffffffffffffffffffffffffffffff1673ffffffffffffffffffffffffffffffffffffffff163373ffffffffffffffffffffffffffffffffffffffff1614610346576040517f08c379a000000000000000000000000000000000000000000000000000000000815260040161033d9061080f565b60405180910390fd5b80600160003073ffffffffffffffffffffffffffffffffffffffff1673ffffffffffffffffffffffffffffffffffffffff1681526020019081526020016000206000828254610395919061085e565b9250508190555050565b60025481565b6000600160003073ffffffffffffffffffffffffffffffffffffffff1673ffffffffffffffffffffffffffffffffffffffff16815260200190815260200160002054905090565b600254816103fa91906108b4565b34101561043c576040517f08c379a00000000000000000000000000000000000000000000000000000000081526004016104339061095a565b60405180910390fd5b80600160003073ffffffffffffffffffffffffffffffffffffffff1673ffffffffffffffffffffffffffffffffffffffff1681526020019081526020016000205410156104be576040517f08c379a00000000000000000000000000000000000000000000000000000000081526004016104b5906109ec565b60405180910390fd5b80600160003073ffffffffffffffffffffffffffffffffffffffff1673ffffffffffffffffffffffffffffffffffffffff168152602001908152602001600020600082825461050d9190610a0c565b9250508190555080600160003373ffffffffffffffffffffffffffffffffffffffff1673ffffffffffffffffffffffffffffffffffffffff1681526020019081526020016000206000828254610563919061085e565b9250508190555050565b600080fd5b6000819050919050565b61058581610572565b811461059057600080fd5b50565b6000813590506105a28161057c565b92915050565b6000602082840312156105be576105bd61056d565b5b60006105cc84828501610593565b91505092915050565b600073ffffffffffffffffffffffffffffffffffffffff82169050919050565b6000610600826105d5565b9050919050565b610610816105f5565b82525050565b600060208201905061062b6000830184610607565b92915050565b61063a816105f5565b811461064557600080fd5b50565b60008135905061065781610631565b92915050565b6000602082840312156106735761067261056d565b5b600061068184828501610648565b91505092915050565b61069381610572565b82525050565b60006020820190506106ae600083018461068a565b92915050565b600082825260208201905092915050565b7f4f6e6c7920746865206f776e65722063616e206368616e67652074686520707260008201527f6963650000000000000000000000000000000000000000000000000000000000602082015250565b60006107216023836106b4565b915061072c826106c5565b604082019050919050565b6000602082019050818103600083015261075081610714565b9050919050565b7f5072696365206d7573742062652067726561746572207468616e203000000000600082015250565b600061078d601c836106b4565b915061079882610757565b602082019050919050565b600060208201905081810360008301526107bc81610780565b9050919050565b7f4f6e6c7920746865206f776e65722063616e20726573746f636b2e0000000000600082015250565b60006107f9601b836106b4565b9150610804826107c3565b602082019050919050565b60006020820190508181036000830152610828816107ec565b9050919050565b7f4e487b7100000000000000000000000000000000000000000000000000000000600052601160045260246000fd5b600061086982610572565b915061087483610572565b9250827fffffffffffffffffffffffffffffffffffffffffffffffffffffffffffffffff038211156108a9576108a861082f565b5b828201905092915050565b60006108bf82610572565b91506108ca83610572565b9250817fffffffffffffffffffffffffffffffffffffffffffffffffffffffffffffffff04831182151516156109035761090261082f565b5b828202905092915050565b7f496e73756666696369656e74207061796d656e74000000000000000000000000600082015250565b60006109446014836106b4565b915061094f8261090e565b602082019050919050565b6000602082019050818103600083015261097381610937565b9050919050565b7f4e6f7420656e6f75676820646f6e75747320696e2073746f636b20746f20636f60008201527f6d706c6574652074686973207075726368617365000000000000000000000000602082015250565b60006109d66034836106b4565b91506109e18261097a565b604082019050919050565b60006020820190508181036000830152610a05816109c9565b9050919050565b6000610a1782610572565b9150610a2283610572565b925082821015610a3557610a3461082f565b5b82820390509291505056fea264697066735822122061b0f575df3097b150a3a240b417905d0d58913469470a675f27c1110052ef7a64736f6c634300080b0033",
  "immutableReferences": {},
  "source": "// SPDX-License-Identifier: MIT\r\npragma solidity ^0.8.11;\r\n\r\ncontract VendingMachine {\r\n    // state variables\r\n    address public owner;\r\n    mapping (address => uint) public donutBalances;\r\n    uint public donutPrice;  // New variable for donut price\r\n\r\n    // set the owner as the address that deployed the contract\r\n    // set the initial vending machine balance to 100\r\n    // set initial donut price to 2 ether\r\n    constructor() {\r\n        owner = msg.sender;\r\n        donutBalances[address(this)] = 100;\r\n        donutPrice = 2 ether;  // Initial price\r\n    }\r\n\r\n    function getVendingMachineBalance() public view returns (uint) {\r\n        return donutBalances[address(this)];\r\n    }\r\n\r\n    // Let the owner restock the vending machine\r\n    function restock(uint amount) public {\r\n        require(msg.sender == owner, \"Only the owner can restock.\");\r\n        donutBalances[address(this)] += amount;\r\n    }\r\n\r\n    // New function to change donut price\r\n    function setDonutPrice(uint _price) public {\r\n        require(msg.sender == owner, \"Only the owner can change the price\");\r\n        require(_price > 0, \"Price must be greater than 0\");\r\n        donutPrice = _price;\r\n    }\r\n\r\n    // Modified purchase function to use dynamic price\r\n    function purchase(uint amount) public payable {\r\n        require(msg.value >= amount * donutPrice, \"Insufficient payment\");\r\n        require(donutBalances[address(this)] >= amount, \"Not enough donuts in stock to complete this purchase\");\r\n        donutBalances[address(this)] -= amount;\r\n        donutBalances[msg.sender] += amount;\r\n    }\r\n}",
  "sourcePath": "D:\\university\\semester 7\\block chain\\quiz\\vending-machine\\contracts\\VendingMachine.sol",
  "compiler": {
    "name": "solc",
    "version": "0.8.11+commit.d7f03943.Emscripten.clang"
  },
  "schemaVersion": "3.4.16",
  "updatedAt": "2024-11-25T08:41:58.431Z",
  "networkType": "ethereum",
  "devdoc": {
    "kind": "dev",
    "methods": {},
    "version": 1
  },
  "userdoc": {
    "kind": "user",
    "methods": {},
    "version": 1
  }
}